{
  "_format": "hh-sol-artifact-1",
  "contractName": "TEASv2",
  "sourceName": "contracts/TEASv2.sol",
  "abi": [
    {
      "inputs": [],
      "stateMutability": "nonpayable",
      "type": "constructor"
    },
    {
      "inputs": [],
      "name": "ApprovalCallerNotOwnerNorApproved",
      "type": "error"
    },
    {
      "inputs": [],
      "name": "ApprovalQueryForNonexistentToken",
      "type": "error"
    },
    {
      "inputs": [],
      "name": "ApprovalToCurrentOwner",
      "type": "error"
    },
    {
      "inputs": [],
      "name": "ApproveToCaller",
      "type": "error"
    },
    {
      "inputs": [],
      "name": "BalanceQueryForZeroAddress",
      "type": "error"
    },
    {
      "inputs": [],
      "name": "MintToZeroAddress",
      "type": "error"
    },
    {
      "inputs": [],
      "name": "MintZeroQuantity",
      "type": "error"
    },
    {
      "inputs": [],
      "name": "OwnerIndexOutOfBounds",
      "type": "error"
    },
    {
      "inputs": [],
      "name": "OwnerQueryForNonexistentToken",
      "type": "error"
    },
    {
      "inputs": [],
      "name": "TokenIndexOutOfBounds",
      "type": "error"
    },
    {
      "inputs": [],
      "name": "TransferCallerNotOwnerNorApproved",
      "type": "error"
    },
    {
      "inputs": [],
      "name": "TransferFromIncorrectOwner",
      "type": "error"
    },
    {
      "inputs": [],
      "name": "TransferToNonERC721ReceiverImplementer",
      "type": "error"
    },
    {
      "inputs": [],
      "name": "TransferToZeroAddress",
      "type": "error"
    },
    {
      "anonymous": false,
      "inputs": [
        {
          "indexed": true,
          "internalType": "address",
          "name": "owner",
          "type": "address"
        },
        {
          "indexed": true,
          "internalType": "address",
          "name": "approved",
          "type": "address"
        },
        {
          "indexed": true,
          "internalType": "uint256",
          "name": "tokenId",
          "type": "uint256"
        }
      ],
      "name": "Approval",
      "type": "event"
    },
    {
      "anonymous": false,
      "inputs": [
        {
          "indexed": true,
          "internalType": "address",
          "name": "owner",
          "type": "address"
        },
        {
          "indexed": true,
          "internalType": "address",
          "name": "operator",
          "type": "address"
        },
        {
          "indexed": false,
          "internalType": "bool",
          "name": "approved",
          "type": "bool"
        }
      ],
      "name": "ApprovalForAll",
      "type": "event"
    },
    {
      "anonymous": false,
      "inputs": [
        {
          "indexed": true,
          "internalType": "address",
          "name": "previousOwner",
          "type": "address"
        },
        {
          "indexed": true,
          "internalType": "address",
          "name": "newOwner",
          "type": "address"
        }
      ],
      "name": "OwnershipTransferred",
      "type": "event"
    },
    {
      "anonymous": false,
      "inputs": [
        {
          "indexed": false,
          "internalType": "address",
          "name": "account",
          "type": "address"
        }
      ],
      "name": "Paused",
      "type": "event"
    },
    {
      "anonymous": false,
      "inputs": [
        {
          "indexed": true,
          "internalType": "address",
          "name": "from",
          "type": "address"
        },
        {
          "indexed": true,
          "internalType": "address",
          "name": "to",
          "type": "address"
        },
        {
          "indexed": true,
          "internalType": "uint256",
          "name": "tokenId",
          "type": "uint256"
        }
      ],
      "name": "Transfer",
      "type": "event"
    },
    {
      "anonymous": false,
      "inputs": [
        {
          "indexed": false,
          "internalType": "address",
          "name": "account",
          "type": "address"
        }
      ],
      "name": "Unpaused",
      "type": "event"
    },
    {
      "anonymous": false,
      "inputs": [
        {
          "indexed": false,
          "internalType": "bool",
          "name": "live",
          "type": "bool"
        }
      ],
      "name": "WhitelistLive",
      "type": "event"
    },
    {
      "inputs": [
        {
          "internalType": "address",
          "name": "_admin",
          "type": "address"
        }
      ],
      "name": "addAdmin",
      "outputs": [],
      "stateMutability": "nonpayable",
      "type": "function"
    },
    {
      "inputs": [
        {
          "internalType": "uint256",
          "name": "count",
          "type": "uint256"
        },
        {
          "internalType": "address",
          "name": "to",
          "type": "address"
        }
      ],
      "name": "adminMint",
      "outputs": [],
      "stateMutability": "nonpayable",
      "type": "function"
    },
    {
      "inputs": [
        {
          "internalType": "address",
          "name": "to",
          "type": "address"
        },
        {
          "internalType": "uint256",
          "name": "tokenId",
          "type": "uint256"
        }
      ],
      "name": "approve",
      "outputs": [],
      "stateMutability": "nonpayable",
      "type": "function"
    },
    {
      "inputs": [
        {
          "internalType": "address",
          "name": "owner",
          "type": "address"
        }
      ],
      "name": "balanceOf",
      "outputs": [
        {
          "internalType": "uint256",
          "name": "",
          "type": "uint256"
        }
      ],
      "stateMutability": "view",
      "type": "function"
    },
    {
      "inputs": [],
      "name": "baseUri",
      "outputs": [
        {
          "internalType": "string",
          "name": "",
          "type": "string"
        }
      ],
      "stateMutability": "view",
      "type": "function"
    },
    {
      "inputs": [
        {
          "internalType": "uint256",
          "name": "tokenId",
          "type": "uint256"
        }
      ],
      "name": "burn",
      "outputs": [],
      "stateMutability": "nonpayable",
      "type": "function"
    },
    {
      "inputs": [],
      "name": "config",
      "outputs": [
        {
          "internalType": "uint256",
          "name": "mintPrice",
          "type": "uint256"
        },
        {
          "internalType": "uint256",
          "name": "wlPrice",
          "type": "uint256"
        },
        {
          "internalType": "uint256",
          "name": "whitelistMint",
          "type": "uint256"
        },
        {
          "internalType": "uint256",
          "name": "maxMint",
          "type": "uint256"
        },
        {
          "internalType": "uint256",
          "name": "maxWhitelist",
          "type": "uint256"
        },
        {
          "internalType": "uint256",
          "name": "maxWhitelistPerTx",
          "type": "uint256"
        },
        {
          "internalType": "uint256",
          "name": "maxMintPerTx",
          "type": "uint256"
        }
      ],
      "stateMutability": "view",
      "type": "function"
    },
    {
      "inputs": [],
      "name": "extension",
      "outputs": [
        {
          "internalType": "string",
          "name": "",
          "type": "string"
        }
      ],
      "stateMutability": "view",
      "type": "function"
    },
    {
      "inputs": [
        {
          "internalType": "uint256",
          "name": "tokenId",
          "type": "uint256"
        }
      ],
      "name": "getApproved",
      "outputs": [
        {
          "internalType": "address",
          "name": "",
          "type": "address"
        }
      ],
      "stateMutability": "view",
      "type": "function"
    },
    {
      "inputs": [
        {
          "internalType": "address",
          "name": "owner",
          "type": "address"
        },
        {
          "internalType": "address",
          "name": "operator",
          "type": "address"
        }
      ],
      "name": "isApprovedForAll",
      "outputs": [
        {
          "internalType": "bool",
          "name": "",
          "type": "bool"
        }
      ],
      "stateMutability": "view",
      "type": "function"
    },
    {
      "inputs": [
        {
          "internalType": "uint256",
          "name": "count",
          "type": "uint256"
        }
      ],
      "name": "mint",
      "outputs": [],
      "stateMutability": "payable",
      "type": "function"
    },
    {
      "inputs": [],
      "name": "name",
      "outputs": [
        {
          "internalType": "string",
          "name": "",
          "type": "string"
        }
      ],
      "stateMutability": "view",
      "type": "function"
    },
    {
      "inputs": [],
      "name": "owner",
      "outputs": [
        {
          "internalType": "address",
          "name": "",
          "type": "address"
        }
      ],
      "stateMutability": "view",
      "type": "function"
    },
    {
      "inputs": [
        {
          "internalType": "uint256",
          "name": "tokenId",
          "type": "uint256"
        }
      ],
      "name": "ownerOf",
      "outputs": [
        {
          "internalType": "address",
          "name": "",
          "type": "address"
        }
      ],
      "stateMutability": "view",
      "type": "function"
    },
    {
      "inputs": [],
      "name": "paused",
      "outputs": [
        {
          "internalType": "bool",
          "name": "",
          "type": "bool"
        }
      ],
      "stateMutability": "view",
      "type": "function"
    },
    {
      "inputs": [],
      "name": "payoutAddress",
      "outputs": [
        {
          "internalType": "address payable",
          "name": "",
          "type": "address"
        }
      ],
      "stateMutability": "view",
      "type": "function"
    },
    {
      "inputs": [
        {
          "internalType": "address",
          "name": "_admin",
          "type": "address"
        }
      ],
      "name": "removeAdmin",
      "outputs": [],
      "stateMutability": "nonpayable",
      "type": "function"
    },
    {
      "inputs": [],
      "name": "renounceOwnership",
      "outputs": [],
      "stateMutability": "nonpayable",
      "type": "function"
    },
    {
      "inputs": [
        {
          "internalType": "address",
          "name": "from",
          "type": "address"
        },
        {
          "internalType": "address",
          "name": "to",
          "type": "address"
        },
        {
          "internalType": "uint256",
          "name": "tokenId",
          "type": "uint256"
        }
      ],
      "name": "safeTransferFrom",
      "outputs": [],
      "stateMutability": "nonpayable",
      "type": "function"
    },
    {
      "inputs": [
        {
          "internalType": "address",
          "name": "from",
          "type": "address"
        },
        {
          "internalType": "address",
          "name": "to",
          "type": "address"
        },
        {
          "internalType": "uint256",
          "name": "tokenId",
          "type": "uint256"
        },
        {
          "internalType": "bytes",
          "name": "_data",
          "type": "bytes"
        }
      ],
      "name": "safeTransferFrom",
      "outputs": [],
      "stateMutability": "nonpayable",
      "type": "function"
    },
    {
      "inputs": [
        {
          "internalType": "address",
          "name": "operator",
          "type": "address"
        },
        {
          "internalType": "bool",
          "name": "approved",
          "type": "bool"
        }
      ],
      "name": "setApprovalForAll",
      "outputs": [],
      "stateMutability": "nonpayable",
      "type": "function"
    },
    {
      "inputs": [
        {
          "components": [
            {
              "internalType": "uint256",
              "name": "mintPrice",
              "type": "uint256"
            },
            {
              "internalType": "uint256",
              "name": "wlPrice",
              "type": "uint256"
            },
            {
              "internalType": "uint256",
              "name": "whitelistMint",
              "type": "uint256"
            },
            {
              "internalType": "uint256",
              "name": "maxMint",
              "type": "uint256"
            },
            {
              "internalType": "uint256",
              "name": "maxWhitelist",
              "type": "uint256"
            },
            {
              "internalType": "uint256",
              "name": "maxWhitelistPerTx",
              "type": "uint256"
            },
            {
              "internalType": "uint256",
              "name": "maxMintPerTx",
              "type": "uint256"
            }
          ],
          "internalType": "struct TEASv2.Config",
          "name": "_config",
          "type": "tuple"
        }
      ],
      "name": "setConfig",
      "outputs": [],
      "stateMutability": "nonpayable",
      "type": "function"
    },
    {
      "inputs": [
        {
          "internalType": "string",
          "name": "_extension",
          "type": "string"
        }
      ],
      "name": "setExtension",
      "outputs": [],
      "stateMutability": "nonpayable",
      "type": "function"
    },
    {
      "inputs": [
        {
          "internalType": "bool",
          "name": "_paused",
          "type": "bool"
        }
      ],
      "name": "setPaused",
      "outputs": [],
      "stateMutability": "nonpayable",
      "type": "function"
    },
    {
      "inputs": [
        {
          "internalType": "uint256",
          "name": "_supply",
          "type": "uint256"
        }
      ],
      "name": "setSupply",
      "outputs": [],
      "stateMutability": "nonpayable",
      "type": "function"
    },
    {
      "inputs": [
        {
          "internalType": "string",
          "name": "_uri",
          "type": "string"
        }
      ],
      "name": "setUri",
      "outputs": [],
      "stateMutability": "nonpayable",
      "type": "function"
    },
    {
      "inputs": [
        {
          "internalType": "bytes32",
          "name": "merkleRoot",
          "type": "bytes32"
        }
      ],
      "name": "setWhitelistMerkleRoot",
      "outputs": [],
      "stateMutability": "nonpayable",
      "type": "function"
    },
    {
      "inputs": [
        {
          "internalType": "address payable",
          "name": "_payoutAddress",
          "type": "address"
        }
      ],
      "name": "setpayoutAddress",
      "outputs": [],
      "stateMutability": "nonpayable",
      "type": "function"
    },
    {
      "inputs": [],
      "name": "supply",
      "outputs": [
        {
          "internalType": "uint256",
          "name": "",
          "type": "uint256"
        }
      ],
      "stateMutability": "view",
      "type": "function"
    },
    {
      "inputs": [
        {
          "internalType": "bytes4",
          "name": "interfaceId",
          "type": "bytes4"
        }
      ],
      "name": "supportsInterface",
      "outputs": [
        {
          "internalType": "bool",
          "name": "",
          "type": "bool"
        }
      ],
      "stateMutability": "view",
      "type": "function"
    },
    {
      "inputs": [],
      "name": "symbol",
      "outputs": [
        {
          "internalType": "string",
          "name": "",
          "type": "string"
        }
      ],
      "stateMutability": "view",
      "type": "function"
    },
    {
      "inputs": [],
      "name": "toggleWhitelistLive",
      "outputs": [],
      "stateMutability": "nonpayable",
      "type": "function"
    },
    {
      "inputs": [
        {
          "internalType": "uint256",
          "name": "index",
          "type": "uint256"
        }
      ],
      "name": "tokenByIndex",
      "outputs": [
        {
          "internalType": "uint256",
          "name": "",
          "type": "uint256"
        }
      ],
      "stateMutability": "view",
      "type": "function"
    },
    {
      "inputs": [
        {
          "internalType": "address",
          "name": "owner",
          "type": "address"
        },
        {
          "internalType": "uint256",
          "name": "index",
          "type": "uint256"
        }
      ],
      "name": "tokenOfOwnerByIndex",
      "outputs": [
        {
          "internalType": "uint256",
          "name": "",
          "type": "uint256"
        }
      ],
      "stateMutability": "view",
      "type": "function"
    },
    {
      "inputs": [
        {
          "internalType": "uint256",
          "name": "tokenId",
          "type": "uint256"
        }
      ],
      "name": "tokenURI",
      "outputs": [
        {
          "internalType": "string",
          "name": "",
          "type": "string"
        }
      ],
      "stateMutability": "view",
      "type": "function"
    },
    {
      "inputs": [],
      "name": "totalSupply",
      "outputs": [
        {
          "internalType": "uint256",
          "name": "",
          "type": "uint256"
        }
      ],
      "stateMutability": "view",
      "type": "function"
    },
    {
      "inputs": [
        {
          "internalType": "address",
          "name": "from",
          "type": "address"
        },
        {
          "internalType": "address",
          "name": "to",
          "type": "address"
        },
        {
          "internalType": "uint256",
          "name": "tokenId",
          "type": "uint256"
        }
      ],
      "name": "transferFrom",
      "outputs": [],
      "stateMutability": "nonpayable",
      "type": "function"
    },
    {
      "inputs": [
        {
          "internalType": "address",
          "name": "newOwner",
          "type": "address"
        }
      ],
      "name": "transferOwnership",
      "outputs": [],
      "stateMutability": "nonpayable",
      "type": "function"
    },
    {
      "inputs": [],
      "name": "whitelistLive",
      "outputs": [
        {
          "internalType": "bool",
          "name": "",
          "type": "bool"
        }
      ],
      "stateMutability": "view",
      "type": "function"
    },
    {
      "inputs": [],
      "name": "whitelistMerkleRoot",
      "outputs": [
        {
          "internalType": "bytes32",
          "name": "",
          "type": "bytes32"
        }
      ],
      "stateMutability": "view",
      "type": "function"
    },
    {
      "inputs": [
        {
          "internalType": "uint256",
          "name": "count",
          "type": "uint256"
        },
        {
          "internalType": "bytes32[]",
          "name": "proof",
          "type": "bytes32[]"
        }
      ],
      "name": "whitelistMint",
      "outputs": [],
      "stateMutability": "payable",
      "type": "function"
    },
    {
      "inputs": [],
      "name": "withdraw",
      "outputs": [],
      "stateMutability": "nonpayable",
      "type": "function"
    }
  ],
  "bytecode": "0x608060405260405180602001604052806000815250600a90805190602001906200002b92919062000373565b50614e20600b556040518060400160405280600581526020017f2e6a736f6e000000000000000000000000000000000000000000000000000000815250600c90805190602001906200007f92919062000373565b503480156200008d57600080fd5b506040518060400160405280601181526020017f5468697264457965536f636965747956320000000000000000000000000000008152506040518060400160405280600681526020017f544541537632000000000000000000000000000000000000000000000000000081525081600190805190602001906200011292919062000373565b5080600290805190602001906200012b92919062000373565b5050506200014e62000142620001d660201b60201c565b620001de60201b60201c565b60016008819055506000600960006101000a81548160ff02191690831515021790555062000181620002a460201b60201c565b67016345785d8a0000600f6000018190555066d529ae9e860000600f600101819055506064600f60030181905550600a600f60040181905550600a600f60050181905550600a600f600601819055506200056d565b600033905090565b6000600760009054906101000a900473ffffffffffffffffffffffffffffffffffffffff16905081600760006101000a81548173ffffffffffffffffffffffffffffffffffffffff021916908373ffffffffffffffffffffffffffffffffffffffff1602179055508173ffffffffffffffffffffffffffffffffffffffff168173ffffffffffffffffffffffffffffffffffffffff167f8be0079c531659141344cd1fd0a4f28419497f9722a3daafe3b4186f6b6457e060405160405180910390a35050565b620002b46200035c60201b60201c565b15620002f7576040517f08c379a0000000000000000000000000000000000000000000000000000000008152600401620002ee9062000484565b60405180910390fd5b6001600960006101000a81548160ff0219169083151502179055507f62e78cea01bee320cd4e420270b5ea74000d11b0c9f74754ebdbfc544b05a25862000343620001d660201b60201c565b604051620003529190620004eb565b60405180910390a1565b6000600960009054906101000a900460ff16905090565b828054620003819062000537565b90600052602060002090601f016020900481019282620003a55760008555620003f1565b82601f10620003c057805160ff1916838001178555620003f1565b82800160010185558215620003f1579182015b82811115620003f0578251825591602001919060010190620003d3565b5b50905062000400919062000404565b5090565b5b808211156200041f57600081600090555060010162000405565b5090565b600082825260208201905092915050565b7f5061757361626c653a2070617573656400000000000000000000000000000000600082015250565b60006200046c60108362000423565b9150620004798262000434565b602082019050919050565b600060208201905081810360008301526200049f816200045d565b9050919050565b600073ffffffffffffffffffffffffffffffffffffffff82169050919050565b6000620004d382620004a6565b9050919050565b620004e581620004c6565b82525050565b6000602082019050620005026000830184620004da565b92915050565b7f4e487b7100000000000000000000000000000000000000000000000000000000600052602260045260246000fd5b600060028204905060018216806200055057607f821691505b6020821081141562000567576200056662000508565b5b50919050565b615bd6806200057d6000396000f3fe6080604052600436106102515760003560e01c80636352211e116101395780639abc8320116100b6578063b88d4fde1161007a578063b88d4fde1461086d578063bd32fb6614610896578063c87b56dd146108bf578063d2cab056146108fc578063e985e9c514610918578063f2fde38b1461095557610251565b80639abc8320146107a95780639b642de1146107d4578063a0712d68146107fd578063a22cb46514610819578063aa98e0c61461084257610251565b806379502c55116100fd57806379502c55146106ce5780637e2285aa146106ff5780638da5cb5b1461072857806395d89b41146107535780639979a1941461077e57610251565b80636352211e146105eb5780636caffb8114610628578063704802751461065157806370a082311461067a578063715018a6146106b757610251565b80632d5537b0116101d257806342966c681161019657806342966c68146104ef5780634f6ccce7146105185780635418c44e14610555578063568c32a31461057e5780635b8d02d7146105955780635c975abb146105c057610251565b80632d5537b01461041e5780632f745c59146104495780633b4c4b25146104865780633ccfd60b146104af57806342842e0e146104c657610251565b80630dc28efe116102195780630dc28efe1461034f57806316c38b3c146103785780631785f53c146103a157806318160ddd146103ca57806323b872dd146103f557610251565b806301ffc9a714610256578063047fc9aa1461029357806306fdde03146102be578063081812fc146102e9578063095ea7b314610326575b600080fd5b34801561026257600080fd5b5061027d60048036038101906102789190614558565b61097e565b60405161028a91906145a0565b60405180910390f35b34801561029f57600080fd5b506102a8610ac8565b6040516102b591906145d4565b60405180910390f35b3480156102ca57600080fd5b506102d3610ace565b6040516102e09190614688565b60405180910390f35b3480156102f557600080fd5b50610310600480360381019061030b91906146d6565b610b60565b60405161031d9190614744565b60405180910390f35b34801561033257600080fd5b5061034d6004803603810190610348919061478b565b610bdc565b005b34801561035b57600080fd5b50610376600480360381019061037191906147cb565b610ce7565b005b34801561038457600080fd5b5061039f600480360381019061039a9190614837565b610dbe565b005b3480156103ad57600080fd5b506103c860048036038101906103c39190614864565b610ea6565b005b3480156103d657600080fd5b506103df610fc1565b6040516103ec91906145d4565b60405180910390f35b34801561040157600080fd5b5061041c60048036038101906104179190614891565b611016565b005b34801561042a57600080fd5b50610433611026565b6040516104409190614688565b60405180910390f35b34801561045557600080fd5b50610470600480360381019061046b919061478b565b6110b4565b60405161047d91906145d4565b60405180910390f35b34801561049257600080fd5b506104ad60048036038101906104a891906146d6565b6112bb565b005b3480156104bb57600080fd5b506104c461138e565b005b3480156104d257600080fd5b506104ed60048036038101906104e89190614891565b611528565b005b3480156104fb57600080fd5b50610516600480360381019061051191906146d6565b611548565b005b34801561052457600080fd5b5061053f600480360381019061053a91906146d6565b611642565b60405161054c91906145d4565b60405180910390f35b34801561056157600080fd5b5061057c60048036038101906105779190614922565b6117b3565b005b34801561058a57600080fd5b506105936118c0565b005b3480156105a157600080fd5b506105aa6119f2565b6040516105b7919061495e565b60405180910390f35b3480156105cc57600080fd5b506105d5611a18565b6040516105e291906145a0565b60405180910390f35b3480156105f757600080fd5b50610612600480360381019061060d91906146d6565b611a2f565b60405161061f9190614744565b60405180910390f35b34801561063457600080fd5b5061064f600480360381019061064a9190614aad565b611a45565b005b34801561065d57600080fd5b5061067860048036038101906106739190614864565b611b5d565b005b34801561068657600080fd5b506106a1600480360381019061069c9190614864565b611c81565b6040516106ae91906145d4565b60405180910390f35b3480156106c357600080fd5b506106cc611d51565b005b3480156106da57600080fd5b506106e3611dd9565b6040516106f69796959493929190614ada565b60405180910390f35b34801561070b57600080fd5b5061072660048036038101906107219190614c03565b611e09565b005b34801561073457600080fd5b5061073d611eec565b60405161074a9190614744565b60405180910390f35b34801561075f57600080fd5b50610768611f16565b6040516107759190614688565b60405180910390f35b34801561078a57600080fd5b50610793611fa8565b6040516107a091906145a0565b60405180910390f35b3480156107b557600080fd5b506107be611fbb565b6040516107cb9190614688565b60405180910390f35b3480156107e057600080fd5b506107fb60048036038101906107f69190614c03565b612049565b005b610817600480360381019061081291906146d6565b61212c565b005b34801561082557600080fd5b50610840600480360381019061083b9190614c4c565b6123d5565b005b34801561084e57600080fd5b5061085761254d565b6040516108649190614ca5565b60405180910390f35b34801561087957600080fd5b50610894600480360381019061088f9190614d61565b612553565b005b3480156108a257600080fd5b506108bd60048036038101906108b89190614e10565b6125a6565b005b3480156108cb57600080fd5b506108e660048036038101906108e191906146d6565b61262c565b6040516108f39190614688565b60405180910390f35b61091660048036038101906109119190614e9d565b612759565b005b34801561092457600080fd5b5061093f600480360381019061093a9190614efd565b612ac4565b60405161094c91906145a0565b60405180910390f35b34801561096157600080fd5b5061097c60048036038101906109779190614864565b612b58565b005b60007f80ac58cd000000000000000000000000000000000000000000000000000000007bffffffffffffffffffffffffffffffffffffffffffffffffffffffff1916827bffffffffffffffffffffffffffffffffffffffffffffffffffffffff19161480610a4957507f5b5e139f000000000000000000000000000000000000000000000000000000007bffffffffffffffffffffffffffffffffffffffffffffffffffffffff1916827bffffffffffffffffffffffffffffffffffffffffffffffffffffffff1916145b80610ab157507f780e9d63000000000000000000000000000000000000000000000000000000007bffffffffffffffffffffffffffffffffffffffffffffffffffffffff1916827bffffffffffffffffffffffffffffffffffffffffffffffffffffffff1916145b80610ac15750610ac082612c50565b5b9050919050565b600b5481565b606060018054610add90614f6c565b80601f0160208091040260200160405190810160405280929190818152602001828054610b0990614f6c565b8015610b565780601f10610b2b57610100808354040283529160200191610b56565b820191906000526020600020905b815481529060010190602001808311610b3957829003601f168201915b5050505050905090565b6000610b6b82612cba565b610ba1576040517fcf4700e400000000000000000000000000000000000000000000000000000000815260040160405180910390fd5b6005600083815260200190815260200160002060009054906101000a900473ffffffffffffffffffffffffffffffffffffffff169050919050565b6000610be782611a2f565b90508073ffffffffffffffffffffffffffffffffffffffff168373ffffffffffffffffffffffffffffffffffffffff161415610c4f576040517f943f7b8c00000000000000000000000000000000000000000000000000000000815260040160405180910390fd5b8073ffffffffffffffffffffffffffffffffffffffff16610c6e612d22565b73ffffffffffffffffffffffffffffffffffffffff1614158015610ca05750610c9e81610c99612d22565b612ac4565b155b15610cd7576040517fcfb3b94200000000000000000000000000000000000000000000000000000000815260040160405180910390fd5b610ce2838383612d2a565b505050565b610cef611eec565b73ffffffffffffffffffffffffffffffffffffffff163373ffffffffffffffffffffffffffffffffffffffff161480610d715750601760003373ffffffffffffffffffffffffffffffffffffffff1673ffffffffffffffffffffffffffffffffffffffff16815260200190815260200160002060009054906101000a900460ff165b610db0576040517f08c379a0000000000000000000000000000000000000000000000000000000008152600401610da790614fea565b60405180910390fd5b610dba8282612ddc565b5050565b610dc6611eec565b73ffffffffffffffffffffffffffffffffffffffff163373ffffffffffffffffffffffffffffffffffffffff161480610e485750601760003373ffffffffffffffffffffffffffffffffffffffff1673ffffffffffffffffffffffffffffffffffffffff16815260200190815260200160002060009054906101000a900460ff165b610e87576040517f08c379a0000000000000000000000000000000000000000000000000000000008152600401610e7e90614fea565b60405180910390fd5b8015610e9a57610e95612e8a565b610ea3565b610ea2612f2d565b5b50565b610eae611eec565b73ffffffffffffffffffffffffffffffffffffffff163373ffffffffffffffffffffffffffffffffffffffff161480610f305750601760003373ffffffffffffffffffffffffffffffffffffffff1673ffffffffffffffffffffffffffffffffffffffff16815260200190815260200160002060009054906101000a900460ff165b610f6f576040517f08c379a0000000000000000000000000000000000000000000000000000000008152600401610f6690614fea565b60405180910390fd5b601760008273ffffffffffffffffffffffffffffffffffffffff1673ffffffffffffffffffffffffffffffffffffffff16815260200190815260200160002060006101000a81549060ff021916905550565b60008060109054906101000a90046fffffffffffffffffffffffffffffffff1660008054906101000a90046fffffffffffffffffffffffffffffffff16036fffffffffffffffffffffffffffffffff16905090565b611021838383612fcf565b505050565b600c805461103390614f6c565b80601f016020809104026020016040519081016040528092919081815260200182805461105f90614f6c565b80156110ac5780601f10611081576101008083540402835291602001916110ac565b820191906000526020600020905b81548152906001019060200180831161108f57829003601f168201915b505050505081565b60006110bf83611c81565b82106110f7576040517f0ddac30e00000000000000000000000000000000000000000000000000000000815260040160405180910390fd5b60008060009054906101000a90046fffffffffffffffffffffffffffffffff166fffffffffffffffffffffffffffffffff16905060008060005b838110156112af576000600360008381526020019081526020016000206040518060600160405290816000820160009054906101000a900473ffffffffffffffffffffffffffffffffffffffff1673ffffffffffffffffffffffffffffffffffffffff1673ffffffffffffffffffffffffffffffffffffffff1681526020016000820160149054906101000a900467ffffffffffffffff1667ffffffffffffffff1667ffffffffffffffff16815260200160008201601c9054906101000a900460ff161515151581525050905080604001511561120e57506112a2565b600073ffffffffffffffffffffffffffffffffffffffff16816000015173ffffffffffffffffffffffffffffffffffffffff161461124e57806000015192505b8773ffffffffffffffffffffffffffffffffffffffff168373ffffffffffffffffffffffffffffffffffffffff1614156112a057868414156112975781955050505050506112b5565b83806001019450505b505b8080600101915050611131565b50600080fd5b92915050565b6112c3611eec565b73ffffffffffffffffffffffffffffffffffffffff163373ffffffffffffffffffffffffffffffffffffffff1614806113455750601760003373ffffffffffffffffffffffffffffffffffffffff1673ffffffffffffffffffffffffffffffffffffffff16815260200190815260200160002060009054906101000a900460ff165b611384576040517f08c379a000000000000000000000000000000000000000000000000000000000815260040161137b90614fea565b60405180910390fd5b80600b8190555050565b611396611eec565b73ffffffffffffffffffffffffffffffffffffffff163373ffffffffffffffffffffffffffffffffffffffff1614806114185750601760003373ffffffffffffffffffffffffffffffffffffffff1673ffffffffffffffffffffffffffffffffffffffff16815260200190815260200160002060009054906101000a900460ff165b611457576040517f08c379a000000000000000000000000000000000000000000000000000000000815260040161144e90614fea565b60405180910390fd5b6000600d60019054906101000a900473ffffffffffffffffffffffffffffffffffffffff1673ffffffffffffffffffffffffffffffffffffffff164760405161149f9061503b565b60006040518083038185875af1925050503d80600081146114dc576040519150601f19603f3d011682016040523d82523d6000602084013e6114e1565b606091505b5050905080611525576040517f08c379a000000000000000000000000000000000000000000000000000000000815260040161151c9061509c565b60405180910390fd5b50565b61154383838360405180602001604052806000815250612553565b505050565b6000611553826134ec565b90506000816000015173ffffffffffffffffffffffffffffffffffffffff1661157a612d22565b73ffffffffffffffffffffffffffffffffffffffff1614806115ad57506115ac82600001516115a7612d22565b612ac4565b5b806115f257506115bb612d22565b73ffffffffffffffffffffffffffffffffffffffff166115da84610b60565b73ffffffffffffffffffffffffffffffffffffffff16145b905080611634576040517f08c379a000000000000000000000000000000000000000000000000000000000815260040161162b90615108565b60405180910390fd5b61163d83613794565b505050565b60008060008054906101000a90046fffffffffffffffffffffffffffffffff166fffffffffffffffffffffffffffffffff1690506000805b8281101561177b576000600360008381526020019081526020016000206040518060600160405290816000820160009054906101000a900473ffffffffffffffffffffffffffffffffffffffff1673ffffffffffffffffffffffffffffffffffffffff1673ffffffffffffffffffffffffffffffffffffffff1681526020016000820160149054906101000a900467ffffffffffffffff1667ffffffffffffffff1667ffffffffffffffff16815260200160008201601c9054906101000a900460ff1615151515815250509050806040015161176d578583141561176457819450505050506117ae565b82806001019350505b50808060010191505061167a565b506040517fa723001c00000000000000000000000000000000000000000000000000000000815260040160405180910390fd5b919050565b6117bb611eec565b73ffffffffffffffffffffffffffffffffffffffff163373ffffffffffffffffffffffffffffffffffffffff16148061183d5750601760003373ffffffffffffffffffffffffffffffffffffffff1673ffffffffffffffffffffffffffffffffffffffff16815260200190815260200160002060009054906101000a900460ff165b61187c576040517f08c379a000000000000000000000000000000000000000000000000000000000815260040161187390614fea565b60405180910390fd5b80600d60016101000a81548173ffffffffffffffffffffffffffffffffffffffff021916908373ffffffffffffffffffffffffffffffffffffffff16021790555050565b6118c8611eec565b73ffffffffffffffffffffffffffffffffffffffff163373ffffffffffffffffffffffffffffffffffffffff16148061194a5750601760003373ffffffffffffffffffffffffffffffffffffffff1673ffffffffffffffffffffffffffffffffffffffff16815260200190815260200160002060009054906101000a900460ff165b611989576040517f08c379a000000000000000000000000000000000000000000000000000000000815260040161198090614fea565b60405180910390fd5b6000600d60009054906101000a900460ff1615905080600d60006101000a81548160ff0219169083151502179055507f033fcfd9cc0d1245d0975739b3bd6fa38727f20cfda54f4c8f817e2825ee7b8c816040516119e791906145a0565b60405180910390a150565b600d60019054906101000a900473ffffffffffffffffffffffffffffffffffffffff1681565b6000600960009054906101000a900460ff16905090565b6000611a3a826134ec565b600001519050919050565b611a4d611eec565b73ffffffffffffffffffffffffffffffffffffffff163373ffffffffffffffffffffffffffffffffffffffff161480611acf5750601760003373ffffffffffffffffffffffffffffffffffffffff1673ffffffffffffffffffffffffffffffffffffffff16815260200190815260200160002060009054906101000a900460ff165b611b0e576040517f08c379a0000000000000000000000000000000000000000000000000000000008152600401611b0590614fea565b60405180910390fd5b80600f600082015181600001556020820151816001015560408201518160020155606082015181600301556080820151816004015560a0820151816005015560c0820151816006015590505050565b611b65611eec565b73ffffffffffffffffffffffffffffffffffffffff163373ffffffffffffffffffffffffffffffffffffffff161480611be75750601760003373ffffffffffffffffffffffffffffffffffffffff1673ffffffffffffffffffffffffffffffffffffffff16815260200190815260200160002060009054906101000a900460ff165b611c26576040517f08c379a0000000000000000000000000000000000000000000000000000000008152600401611c1d90614fea565b60405180910390fd5b6001601760008373ffffffffffffffffffffffffffffffffffffffff1673ffffffffffffffffffffffffffffffffffffffff16815260200190815260200160002060006101000a81548160ff02191690831515021790555050565b60008073ffffffffffffffffffffffffffffffffffffffff168273ffffffffffffffffffffffffffffffffffffffff161415611ce9576040517f8f4eb60400000000000000000000000000000000000000000000000000000000815260040160405180910390fd5b600460008373ffffffffffffffffffffffffffffffffffffffff1673ffffffffffffffffffffffffffffffffffffffff16815260200190815260200160002060000160009054906101000a900467ffffffffffffffff1667ffffffffffffffff169050919050565b611d59612d22565b73ffffffffffffffffffffffffffffffffffffffff16611d77611eec565b73ffffffffffffffffffffffffffffffffffffffff1614611dcd576040517f08c379a0000000000000000000000000000000000000000000000000000000008152600401611dc490615174565b60405180910390fd5b611dd76000613bb1565b565b600f8060000154908060010154908060020154908060030154908060040154908060050154908060060154905087565b611e11611eec565b73ffffffffffffffffffffffffffffffffffffffff163373ffffffffffffffffffffffffffffffffffffffff161480611e935750601760003373ffffffffffffffffffffffffffffffffffffffff1673ffffffffffffffffffffffffffffffffffffffff16815260200190815260200160002060009054906101000a900460ff165b611ed2576040517f08c379a0000000000000000000000000000000000000000000000000000000008152600401611ec990614fea565b60405180910390fd5b80600c9080519060200190611ee8929190614406565b5050565b6000600760009054906101000a900473ffffffffffffffffffffffffffffffffffffffff16905090565b606060028054611f2590614f6c565b80601f0160208091040260200160405190810160405280929190818152602001828054611f5190614f6c565b8015611f9e5780601f10611f7357610100808354040283529160200191611f9e565b820191906000526020600020905b815481529060010190602001808311611f8157829003601f168201915b5050505050905090565b600d60009054906101000a900460ff1681565b600a8054611fc890614f6c565b80601f0160208091040260200160405190810160405280929190818152602001828054611ff490614f6c565b80156120415780601f1061201657610100808354040283529160200191612041565b820191906000526020600020905b81548152906001019060200180831161202457829003601f168201915b505050505081565b612051611eec565b73ffffffffffffffffffffffffffffffffffffffff163373ffffffffffffffffffffffffffffffffffffffff1614806120d35750601760003373ffffffffffffffffffffffffffffffffffffffff1673ffffffffffffffffffffffffffffffffffffffff16815260200190815260200160002060009054906101000a900460ff165b612112576040517f08c379a000000000000000000000000000000000000000000000000000000000815260040161210990614fea565b60405180910390fd5b80600a9080519060200190612128929190614406565b5050565b60026008541415612172576040517f08c379a0000000000000000000000000000000000000000000000000000000008152600401612169906151e0565b60405180910390fd5b6002600881905550612182611a18565b156121c2576040517f08c379a00000000000000000000000000000000000000000000000000000000081526004016121b99061524c565b60405180910390fd5b3273ffffffffffffffffffffffffffffffffffffffff166121e1612d22565b73ffffffffffffffffffffffffffffffffffffffff1614612237576040517f08c379a000000000000000000000000000000000000000000000000000000000815260040161222e906152b8565b60405180910390fd5b600f6006015481111561227f576040517f08c379a000000000000000000000000000000000000000000000000000000000815260040161227690615324565b60405180910390fd5b600f6003015481601660003373ffffffffffffffffffffffffffffffffffffffff1673ffffffffffffffffffffffffffffffffffffffff168152602001908152602001600020600001546122d39190615373565b1115612314576040517f08c379a000000000000000000000000000000000000000000000000000000000815260040161230b90615324565b60405180910390fd5b80600f6000015461232591906153c9565b341015612367576040517f08c379a000000000000000000000000000000000000000000000000000000000815260040161235e9061546f565b60405180910390fd5b80601660003373ffffffffffffffffffffffffffffffffffffffff1673ffffffffffffffffffffffffffffffffffffffff16815260200190815260200160002060000160008282546123b99190615373565b925050819055506123ca8133612ddc565b600160088190555050565b6123dd612d22565b73ffffffffffffffffffffffffffffffffffffffff168273ffffffffffffffffffffffffffffffffffffffff161415612442576040517fb06307db00000000000000000000000000000000000000000000000000000000815260040160405180910390fd5b806006600061244f612d22565b73ffffffffffffffffffffffffffffffffffffffff1673ffffffffffffffffffffffffffffffffffffffff16815260200190815260200160002060008473ffffffffffffffffffffffffffffffffffffffff1673ffffffffffffffffffffffffffffffffffffffff16815260200190815260200160002060006101000a81548160ff0219169083151502179055508173ffffffffffffffffffffffffffffffffffffffff166124fc612d22565b73ffffffffffffffffffffffffffffffffffffffff167f17307eab39ab6107e8899845ad3d59bd9653f200f220920489ca2b5937696c318360405161254191906145a0565b60405180910390a35050565b600e5481565b61255e848484612fcf565b61256a84848484613c77565b6125a0576040517fd1a57ed600000000000000000000000000000000000000000000000000000000815260040160405180910390fd5b50505050565b6125ae612d22565b73ffffffffffffffffffffffffffffffffffffffff166125cc611eec565b73ffffffffffffffffffffffffffffffffffffffff1614612622576040517f08c379a000000000000000000000000000000000000000000000000000000000815260040161261990615174565b60405180910390fd5b80600e8190555050565b606061263782612cba565b612676576040517f08c379a000000000000000000000000000000000000000000000000000000000815260040161266d90615501565b60405180910390fd5b6000600a805461268590614f6c565b80601f01602080910402602001604051908101604052809291908181526020018280546126b190614f6c565b80156126fe5780601f106126d3576101008083540402835291602001916126fe565b820191906000526020600020905b8154815290600101906020018083116126e157829003601f168201915b5050505050905060008151116127235760405180602001604052806000815250612751565b8061272d84613df6565b600c604051602001612741939291906155f1565b6040516020818303038152906040525b915050919050565b8181600e546127d0838380806020026020016040519081016040528093929190818152602001838360200280828437600081840152601f19601f8201169050808301925050505050505082336040516020016127b5919061566a565b60405160208183030381529060405280519060200120613f57565b61280f576040517f08c379a0000000000000000000000000000000000000000000000000000000008152600401612806906156d1565b60405180910390fd5b60026008541415612855576040517f08c379a000000000000000000000000000000000000000000000000000000000815260040161284c906151e0565b60405180910390fd5b60026008819055503273ffffffffffffffffffffffffffffffffffffffff1661287c612d22565b73ffffffffffffffffffffffffffffffffffffffff16146128d2576040517f08c379a00000000000000000000000000000000000000000000000000000000081526004016128c9906152b8565b60405180910390fd5b600d60009054906101000a900460ff16612921576040517f08c379a00000000000000000000000000000000000000000000000000000000081526004016129189061573d565b60405180910390fd5b600f60050154861115612969576040517f08c379a000000000000000000000000000000000000000000000000000000000815260040161296090615324565b60405180910390fd5b600f6004015486601660003373ffffffffffffffffffffffffffffffffffffffff1673ffffffffffffffffffffffffffffffffffffffff168152602001908152602001600020600101546129bd9190615373565b11156129fe576040517f08c379a00000000000000000000000000000000000000000000000000000000081526004016129f590615324565b60405180910390fd5b85600f60010154612a0f91906153c9565b341015612a51576040517f08c379a0000000000000000000000000000000000000000000000000000000008152600401612a489061546f565b60405180910390fd5b85601660003373ffffffffffffffffffffffffffffffffffffffff1673ffffffffffffffffffffffffffffffffffffffff1681526020019081526020016000206001016000828254612aa39190615373565b92505081905550612ab48633612ddc565b6001600881905550505050505050565b6000600660008473ffffffffffffffffffffffffffffffffffffffff1673ffffffffffffffffffffffffffffffffffffffff16815260200190815260200160002060008373ffffffffffffffffffffffffffffffffffffffff1673ffffffffffffffffffffffffffffffffffffffff16815260200190815260200160002060009054906101000a900460ff16905092915050565b612b60612d22565b73ffffffffffffffffffffffffffffffffffffffff16612b7e611eec565b73ffffffffffffffffffffffffffffffffffffffff1614612bd4576040517f08c379a0000000000000000000000000000000000000000000000000000000008152600401612bcb90615174565b60405180910390fd5b600073ffffffffffffffffffffffffffffffffffffffff168173ffffffffffffffffffffffffffffffffffffffff161415612c44576040517f08c379a0000000000000000000000000000000000000000000000000000000008152600401612c3b906157cf565b60405180910390fd5b612c4d81613bb1565b50565b60007f01ffc9a7000000000000000000000000000000000000000000000000000000007bffffffffffffffffffffffffffffffffffffffffffffffffffffffff1916827bffffffffffffffffffffffffffffffffffffffffffffffffffffffff1916149050919050565b60008060009054906101000a90046fffffffffffffffffffffffffffffffff166fffffffffffffffffffffffffffffffff1682108015612d1b575060036000838152602001908152602001600020600001601c9054906101000a900460ff16155b9050919050565b600033905090565b826005600084815260200190815260200160002060006101000a81548173ffffffffffffffffffffffffffffffffffffffff021916908373ffffffffffffffffffffffffffffffffffffffff160217905550818373ffffffffffffffffffffffffffffffffffffffff168273ffffffffffffffffffffffffffffffffffffffff167f8c5be1e5ebec7d5bd14f71427d1e84f3dd0314c0f7b2291e5b200ac8c7c3b92560405160405180910390a4505050565b6000612de6610fc1565b905060008311612e2b576040517f08c379a0000000000000000000000000000000000000000000000000000000008152600401612e229061583b565b60405180910390fd5b600b548382612e3a9190615373565b1115612e7b576040517f08c379a0000000000000000000000000000000000000000000000000000000008152600401612e72906158a7565b60405180910390fd5b612e858284613f6e565b505050565b612e92611a18565b15612ed2576040517f08c379a0000000000000000000000000000000000000000000000000000000008152600401612ec99061524c565b60405180910390fd5b6001600960006101000a81548160ff0219169083151502179055507f62e78cea01bee320cd4e420270b5ea74000d11b0c9f74754ebdbfc544b05a258612f16612d22565b604051612f239190614744565b60405180910390a1565b612f35611a18565b612f74576040517f08c379a0000000000000000000000000000000000000000000000000000000008152600401612f6b90615913565b60405180910390fd5b6000600960006101000a81548160ff0219169083151502179055507f5db9ee0a495bf2e6ff9c91a7834c1ba4fdd244a5e8aa4e537bd38aeae4b073aa612fb8612d22565b604051612fc59190614744565b60405180910390a1565b6000612fda826134ec565b90506000816000015173ffffffffffffffffffffffffffffffffffffffff16613001612d22565b73ffffffffffffffffffffffffffffffffffffffff1614806130345750613033826000015161302e612d22565b612ac4565b5b806130795750613042612d22565b73ffffffffffffffffffffffffffffffffffffffff1661306184610b60565b73ffffffffffffffffffffffffffffffffffffffff16145b9050806130b2576040517f59c896be00000000000000000000000000000000000000000000000000000000815260040160405180910390fd5b8473ffffffffffffffffffffffffffffffffffffffff16826000015173ffffffffffffffffffffffffffffffffffffffff161461311b576040517fa114810000000000000000000000000000000000000000000000000000000000815260040160405180910390fd5b600073ffffffffffffffffffffffffffffffffffffffff168473ffffffffffffffffffffffffffffffffffffffff161415613182576040517fea553b3400000000000000000000000000000000000000000000000000000000815260040160405180910390fd5b61318f8585856001613f8c565b61319f6000848460000151612d2a565b6001600460008773ffffffffffffffffffffffffffffffffffffffff1673ffffffffffffffffffffffffffffffffffffffff16815260200190815260200160002060000160008282829054906101000a900467ffffffffffffffff160392506101000a81548167ffffffffffffffff021916908367ffffffffffffffff1602179055506001600460008673ffffffffffffffffffffffffffffffffffffffff1673ffffffffffffffffffffffffffffffffffffffff16815260200190815260200160002060000160008282829054906101000a900467ffffffffffffffff160192506101000a81548167ffffffffffffffff021916908367ffffffffffffffff160217905550836003600085815260200190815260200160002060000160006101000a81548173ffffffffffffffffffffffffffffffffffffffff021916908373ffffffffffffffffffffffffffffffffffffffff160217905550426003600085815260200190815260200160002060000160146101000a81548167ffffffffffffffff021916908367ffffffffffffffff1602179055506000600184019050600073ffffffffffffffffffffffffffffffffffffffff166003600083815260200190815260200160002060000160009054906101000a900473ffffffffffffffffffffffffffffffffffffffff1673ffffffffffffffffffffffffffffffffffffffff16141561347c5760008054906101000a90046fffffffffffffffffffffffffffffffff166fffffffffffffffffffffffffffffffff1681101561347b5782600001516003600083815260200190815260200160002060000160006101000a81548173ffffffffffffffffffffffffffffffffffffffff021916908373ffffffffffffffffffffffffffffffffffffffff16021790555082602001516003600083815260200190815260200160002060000160146101000a81548167ffffffffffffffff021916908367ffffffffffffffff1602179055505b5b50828473ffffffffffffffffffffffffffffffffffffffff168673ffffffffffffffffffffffffffffffffffffffff167fddf252ad1be2c89b69c2b068fc378daa952ba7f163c4a11628f55a4df523b3ef60405160405180910390a46134e58585856001613f92565b5050505050565b6134f461448c565b600082905060008054906101000a90046fffffffffffffffffffffffffffffffff166fffffffffffffffffffffffffffffffff1681101561375d576000600360008381526020019081526020016000206040518060600160405290816000820160009054906101000a900473ffffffffffffffffffffffffffffffffffffffff1673ffffffffffffffffffffffffffffffffffffffff1673ffffffffffffffffffffffffffffffffffffffff1681526020016000820160149054906101000a900467ffffffffffffffff1667ffffffffffffffff1667ffffffffffffffff16815260200160008201601c9054906101000a900460ff1615151515815250509050806040015161375b57600073ffffffffffffffffffffffffffffffffffffffff16816000015173ffffffffffffffffffffffffffffffffffffffff161461363f57809250505061378f565b5b60011561375a57818060019003925050600360008381526020019081526020016000206040518060600160405290816000820160009054906101000a900473ffffffffffffffffffffffffffffffffffffffff1673ffffffffffffffffffffffffffffffffffffffff1673ffffffffffffffffffffffffffffffffffffffff1681526020016000820160149054906101000a900467ffffffffffffffff1667ffffffffffffffff1667ffffffffffffffff16815260200160008201601c9054906101000a900460ff1615151515815250509050600073ffffffffffffffffffffffffffffffffffffffff16816000015173ffffffffffffffffffffffffffffffffffffffff161461375557809250505061378f565b613640565b5b505b6040517fdf2d9b4200000000000000000000000000000000000000000000000000000000815260040160405180910390fd5b919050565b600061379f826134ec565b90506137b381600001516000846001613f8c565b6137c36000838360000151612d2a565b600160046000836000015173ffffffffffffffffffffffffffffffffffffffff1673ffffffffffffffffffffffffffffffffffffffff16815260200190815260200160002060000160008282829054906101000a900467ffffffffffffffff160392506101000a81548167ffffffffffffffff021916908367ffffffffffffffff160217905550600160046000836000015173ffffffffffffffffffffffffffffffffffffffff1673ffffffffffffffffffffffffffffffffffffffff16815260200190815260200160002060000160108282829054906101000a900467ffffffffffffffff160192506101000a81548167ffffffffffffffff021916908367ffffffffffffffff16021790555080600001516003600084815260200190815260200160002060000160006101000a81548173ffffffffffffffffffffffffffffffffffffffff021916908373ffffffffffffffffffffffffffffffffffffffff160217905550426003600084815260200190815260200160002060000160146101000a81548167ffffffffffffffff021916908367ffffffffffffffff160217905550600160036000848152602001908152602001600020600001601c6101000a81548160ff0219169083151502179055506000600183019050600073ffffffffffffffffffffffffffffffffffffffff166003600083815260200190815260200160002060000160009054906101000a900473ffffffffffffffffffffffffffffffffffffffff1673ffffffffffffffffffffffffffffffffffffffff161415613adb5760008054906101000a90046fffffffffffffffffffffffffffffffff166fffffffffffffffffffffffffffffffff16811015613ada5781600001516003600083815260200190815260200160002060000160006101000a81548173ffffffffffffffffffffffffffffffffffffffff021916908373ffffffffffffffffffffffffffffffffffffffff16021790555081602001516003600083815260200190815260200160002060000160146101000a81548167ffffffffffffffff021916908367ffffffffffffffff1602179055505b5b5081600073ffffffffffffffffffffffffffffffffffffffff16826000015173ffffffffffffffffffffffffffffffffffffffff167fddf252ad1be2c89b69c2b068fc378daa952ba7f163c4a11628f55a4df523b3ef60405160405180910390a4613b4e81600001516000846001613f92565b6000601081819054906101000a90046fffffffffffffffffffffffffffffffff168092919060010191906101000a8154816fffffffffffffffffffffffffffffffff02191690836fffffffffffffffffffffffffffffffff160217905550505050565b6000600760009054906101000a900473ffffffffffffffffffffffffffffffffffffffff16905081600760006101000a81548173ffffffffffffffffffffffffffffffffffffffff021916908373ffffffffffffffffffffffffffffffffffffffff1602179055508173ffffffffffffffffffffffffffffffffffffffff168173ffffffffffffffffffffffffffffffffffffffff167f8be0079c531659141344cd1fd0a4f28419497f9722a3daafe3b4186f6b6457e060405160405180910390a35050565b6000613c988473ffffffffffffffffffffffffffffffffffffffff16613f98565b15613de9578373ffffffffffffffffffffffffffffffffffffffff1663150b7a02613cc1612d22565b8786866040518563ffffffff1660e01b8152600401613ce39493929190615988565b6020604051808303816000875af1925050508015613d1f57506040513d601f19601f82011682018060405250810190613d1c91906159e9565b60015b613d99573d8060008114613d4f576040519150601f19603f3d011682016040523d82523d6000602084013e613d54565b606091505b50600081511415613d91576040517fd1a57ed600000000000000000000000000000000000000000000000000000000815260040160405180910390fd5b805181602001fd5b63150b7a0260e01b7bffffffffffffffffffffffffffffffffffffffffffffffffffffffff1916817bffffffffffffffffffffffffffffffffffffffffffffffffffffffff191614915050613dee565b600190505b949350505050565b60606000821415613e3e576040518060400160405280600181526020017f30000000000000000000000000000000000000000000000000000000000000008152509050613f52565b600082905060005b60008214613e70578080613e5990615a16565b915050600a82613e699190615a8e565b9150613e46565b60008167ffffffffffffffff811115613e8c57613e8b61497e565b5b6040519080825280601f01601f191660200182016040528015613ebe5781602001600182028036833780820191505090505b5090505b60008514613f4b57600182613ed79190615abf565b9150600a85613ee69190615af3565b6030613ef29190615373565b60f81b818381518110613f0857613f07615b24565b5b60200101907effffffffffffffffffffffffffffffffffffffffffffffffffffffffffffff1916908160001a905350600a85613f449190615a8e565b9450613ec2565b8093505050505b919050565b600082613f648584613fab565b1490509392505050565b613f8882826040518060200160405280600081525061405e565b5050565b50505050565b50505050565b600080823b905060008111915050919050565b60008082905060005b8451811015614053576000858281518110613fd257613fd1615b24565b5b60200260200101519050808311614013578281604051602001613ff6929190615b74565b60405160208183030381529060405280519060200120925061403f565b8083604051602001614026929190615b74565b6040516020818303038152906040528051906020012092505b50808061404b90615a16565b915050613fb4565b508091505092915050565b61406b8383836001614070565b505050565b60008060009054906101000a90046fffffffffffffffffffffffffffffffff166fffffffffffffffffffffffffffffffff169050600073ffffffffffffffffffffffffffffffffffffffff168573ffffffffffffffffffffffffffffffffffffffff16141561410b576040517f2e07630000000000000000000000000000000000000000000000000000000000815260040160405180910390fd5b6000841415614146576040517fb562e8dd00000000000000000000000000000000000000000000000000000000815260040160405180910390fd5b6141536000868387613f8c565b83600460008773ffffffffffffffffffffffffffffffffffffffff1673ffffffffffffffffffffffffffffffffffffffff16815260200190815260200160002060000160008282829054906101000a900467ffffffffffffffff160192506101000a81548167ffffffffffffffff021916908367ffffffffffffffff16021790555083600460008773ffffffffffffffffffffffffffffffffffffffff1673ffffffffffffffffffffffffffffffffffffffff16815260200190815260200160002060000160088282829054906101000a900467ffffffffffffffff160192506101000a81548167ffffffffffffffff021916908367ffffffffffffffff160217905550846003600083815260200190815260200160002060000160006101000a81548173ffffffffffffffffffffffffffffffffffffffff021916908373ffffffffffffffffffffffffffffffffffffffff160217905550426003600083815260200190815260200160002060000160146101000a81548167ffffffffffffffff021916908367ffffffffffffffff160217905550600081905060005b858110156143b857818773ffffffffffffffffffffffffffffffffffffffff16600073ffffffffffffffffffffffffffffffffffffffff167fddf252ad1be2c89b69c2b068fc378daa952ba7f163c4a11628f55a4df523b3ef60405160405180910390a483801561436c575061436a6000888488613c77565b155b156143a3576040517fd1a57ed600000000000000000000000000000000000000000000000000000000815260040160405180910390fd5b818060010192505080806001019150506142f1565b50806000806101000a8154816fffffffffffffffffffffffffffffffff02191690836fffffffffffffffffffffffffffffffff160217905550506143ff6000868387613f92565b5050505050565b82805461441290614f6c565b90600052602060002090601f016020900481019282614434576000855561447b565b82601f1061444d57805160ff191683800117855561447b565b8280016001018555821561447b579182015b8281111561447a57825182559160200191906001019061445f565b5b50905061448891906144cf565b5090565b6040518060600160405280600073ffffffffffffffffffffffffffffffffffffffff168152602001600067ffffffffffffffff1681526020016000151581525090565b5b808211156144e85760008160009055506001016144d0565b5090565b6000604051905090565b600080fd5b600080fd5b60007fffffffff0000000000000000000000000000000000000000000000000000000082169050919050565b61453581614500565b811461454057600080fd5b50565b6000813590506145528161452c565b92915050565b60006020828403121561456e5761456d6144f6565b5b600061457c84828501614543565b91505092915050565b60008115159050919050565b61459a81614585565b82525050565b60006020820190506145b56000830184614591565b92915050565b6000819050919050565b6145ce816145bb565b82525050565b60006020820190506145e960008301846145c5565b92915050565b600081519050919050565b600082825260208201905092915050565b60005b8381101561462957808201518184015260208101905061460e565b83811115614638576000848401525b50505050565b6000601f19601f8301169050919050565b600061465a826145ef565b61466481856145fa565b935061467481856020860161460b565b61467d8161463e565b840191505092915050565b600060208201905081810360008301526146a2818461464f565b905092915050565b6146b3816145bb565b81146146be57600080fd5b50565b6000813590506146d0816146aa565b92915050565b6000602082840312156146ec576146eb6144f6565b5b60006146fa848285016146c1565b91505092915050565b600073ffffffffffffffffffffffffffffffffffffffff82169050919050565b600061472e82614703565b9050919050565b61473e81614723565b82525050565b60006020820190506147596000830184614735565b92915050565b61476881614723565b811461477357600080fd5b50565b6000813590506147858161475f565b92915050565b600080604083850312156147a2576147a16144f6565b5b60006147b085828601614776565b92505060206147c1858286016146c1565b9150509250929050565b600080604083850312156147e2576147e16144f6565b5b60006147f0858286016146c1565b925050602061480185828601614776565b9150509250929050565b61481481614585565b811461481f57600080fd5b50565b6000813590506148318161480b565b92915050565b60006020828403121561484d5761484c6144f6565b5b600061485b84828501614822565b91505092915050565b60006020828403121561487a576148796144f6565b5b600061488884828501614776565b91505092915050565b6000806000606084860312156148aa576148a96144f6565b5b60006148b886828701614776565b93505060206148c986828701614776565b92505060406148da868287016146c1565b9150509250925092565b60006148ef82614703565b9050919050565b6148ff816148e4565b811461490a57600080fd5b50565b60008135905061491c816148f6565b92915050565b600060208284031215614938576149376144f6565b5b60006149468482850161490d565b91505092915050565b614958816148e4565b82525050565b6000602082019050614973600083018461494f565b92915050565b600080fd5b7f4e487b7100000000000000000000000000000000000000000000000000000000600052604160045260246000fd5b6149b68261463e565b810181811067ffffffffffffffff821117156149d5576149d461497e565b5b80604052505050565b60006149e86144ec565b90506149f482826149ad565b919050565b600060e08284031215614a0f57614a0e614979565b5b614a1960e06149de565b90506000614a29848285016146c1565b6000830152506020614a3d848285016146c1565b6020830152506040614a51848285016146c1565b6040830152506060614a65848285016146c1565b6060830152506080614a79848285016146c1565b60808301525060a0614a8d848285016146c1565b60a08301525060c0614aa1848285016146c1565b60c08301525092915050565b600060e08284031215614ac357614ac26144f6565b5b6000614ad1848285016149f9565b91505092915050565b600060e082019050614aef600083018a6145c5565b614afc60208301896145c5565b614b0960408301886145c5565b614b1660608301876145c5565b614b2360808301866145c5565b614b3060a08301856145c5565b614b3d60c08301846145c5565b98975050505050505050565b600080fd5b600080fd5b600067ffffffffffffffff821115614b6e57614b6d61497e565b5b614b778261463e565b9050602081019050919050565b82818337600083830152505050565b6000614ba6614ba184614b53565b6149de565b905082815260208101848484011115614bc257614bc1614b4e565b5b614bcd848285614b84565b509392505050565b600082601f830112614bea57614be9614b49565b5b8135614bfa848260208601614b93565b91505092915050565b600060208284031215614c1957614c186144f6565b5b600082013567ffffffffffffffff811115614c3757614c366144fb565b5b614c4384828501614bd5565b91505092915050565b60008060408385031215614c6357614c626144f6565b5b6000614c7185828601614776565b9250506020614c8285828601614822565b9150509250929050565b6000819050919050565b614c9f81614c8c565b82525050565b6000602082019050614cba6000830184614c96565b92915050565b600067ffffffffffffffff821115614cdb57614cda61497e565b5b614ce48261463e565b9050602081019050919050565b6000614d04614cff84614cc0565b6149de565b905082815260208101848484011115614d2057614d1f614b4e565b5b614d2b848285614b84565b509392505050565b600082601f830112614d4857614d47614b49565b5b8135614d58848260208601614cf1565b91505092915050565b60008060008060808587031215614d7b57614d7a6144f6565b5b6000614d8987828801614776565b9450506020614d9a87828801614776565b9350506040614dab878288016146c1565b925050606085013567ffffffffffffffff811115614dcc57614dcb6144fb565b5b614dd887828801614d33565b91505092959194509250565b614ded81614c8c565b8114614df857600080fd5b50565b600081359050614e0a81614de4565b92915050565b600060208284031215614e2657614e256144f6565b5b6000614e3484828501614dfb565b91505092915050565b600080fd5b600080fd5b60008083601f840112614e5d57614e5c614b49565b5b8235905067ffffffffffffffff811115614e7a57614e79614e3d565b5b602083019150836020820283011115614e9657614e95614e42565b5b9250929050565b600080600060408486031215614eb657614eb56144f6565b5b6000614ec4868287016146c1565b935050602084013567ffffffffffffffff811115614ee557614ee46144fb565b5b614ef186828701614e47565b92509250509250925092565b60008060408385031215614f1457614f136144f6565b5b6000614f2285828601614776565b9250506020614f3385828601614776565b9150509250929050565b7f4e487b7100000000000000000000000000000000000000000000000000000000600052602260045260246000fd5b60006002820490506001821680614f8457607f821691505b60208210811415614f9857614f97614f3d565b5b50919050565b7f556e617574686f72697a65640000000000000000000000000000000000000000600082015250565b6000614fd4600c836145fa565b9150614fdf82614f9e565b602082019050919050565b6000602082019050818103600083015261500381614fc7565b9050919050565b600081905092915050565b50565b600061502560008361500a565b915061503082615015565b600082019050919050565b600061504682615018565b9150819050919050565b7f5472616e73666572206661696c65642e00000000000000000000000000000000600082015250565b60006150866010836145fa565b915061509182615050565b602082019050919050565b600060208201905081810360008301526150b581615079565b9050919050565b7f4e6f7420617070726f7665640000000000000000000000000000000000000000600082015250565b60006150f2600c836145fa565b91506150fd826150bc565b602082019050919050565b60006020820190508181036000830152615121816150e5565b9050919050565b7f4f776e61626c653a2063616c6c6572206973206e6f7420746865206f776e6572600082015250565b600061515e6020836145fa565b915061516982615128565b602082019050919050565b6000602082019050818103600083015261518d81615151565b9050919050565b7f5265656e7472616e637947756172643a207265656e7472616e742063616c6c00600082015250565b60006151ca601f836145fa565b91506151d582615194565b602082019050919050565b600060208201905081810360008301526151f9816151bd565b9050919050565b7f5061757361626c653a2070617573656400000000000000000000000000000000600082015250565b60006152366010836145fa565b915061524182615200565b602082019050919050565b6000602082019050818103600083015261526581615229565b9050919050565b7f6e6f20626f747300000000000000000000000000000000000000000000000000600082015250565b60006152a26007836145fa565b91506152ad8261526c565b602082019050919050565b600060208201905081810360008301526152d181615295565b9050919050565b7f45786365656473206d6178000000000000000000000000000000000000000000600082015250565b600061530e600b836145fa565b9150615319826152d8565b602082019050919050565b6000602082019050818103600083015261533d81615301565b9050919050565b7f4e487b7100000000000000000000000000000000000000000000000000000000600052601160045260246000fd5b600061537e826145bb565b9150615389836145bb565b9250827fffffffffffffffffffffffffffffffffffffffffffffffffffffffffffffffff038211156153be576153bd615344565b5b828201905092915050565b60006153d4826145bb565b91506153df836145bb565b9250817fffffffffffffffffffffffffffffffffffffffffffffffffffffffffffffffff048311821515161561541857615417615344565b5b828202905092915050565b7f696e76616c696420707269636500000000000000000000000000000000000000600082015250565b6000615459600d836145fa565b915061546482615423565b602082019050919050565b600060208201905081810360008301526154888161544c565b9050919050565b7f4552433732314d657461646174613a204e6f6e6578697374656e7420746f6b6560008201527f6e00000000000000000000000000000000000000000000000000000000000000602082015250565b60006154eb6021836145fa565b91506154f68261548f565b604082019050919050565b6000602082019050818103600083015261551a816154de565b9050919050565b600081905092915050565b6000615537826145ef565b6155418185615521565b935061555181856020860161460b565b80840191505092915050565b60008190508160005260206000209050919050565b6000815461557f81614f6c565b6155898186615521565b945060018216600081146155a457600181146155b5576155e8565b60ff198316865281860193506155e8565b6155be8561555d565b60005b838110156155e0578154818901526001820191506020810190506155c1565b838801955050505b50505092915050565b60006155fd828661552c565b9150615609828561552c565b91506156158284615572565b9150819050949350505050565b60008160601b9050919050565b600061563a82615622565b9050919050565b600061564c8261562f565b9050919050565b61566461565f82614723565b615641565b82525050565b60006156768284615653565b60148201915081905092915050565b7f4164647265737320646f6573206e6f7420657869737420696e206c6973740000600082015250565b60006156bb601e836145fa565b91506156c682615685565b602082019050919050565b600060208201905081810360008301526156ea816156ae565b9050919050565b7f4e6f74206c697665000000000000000000000000000000000000000000000000600082015250565b60006157276008836145fa565b9150615732826156f1565b602082019050919050565b600060208201905081810360008301526157568161571a565b9050919050565b7f4f776e61626c653a206e6577206f776e657220697320746865207a65726f206160008201527f6464726573730000000000000000000000000000000000000000000000000000602082015250565b60006157b96026836145fa565b91506157c48261575d565b604082019050919050565b600060208201905081810360008301526157e8816157ac565b9050919050565b7f436f756e74206973203000000000000000000000000000000000000000000000600082015250565b6000615825600a836145fa565b9150615830826157ef565b602082019050919050565b6000602082019050818103600083015261585481615818565b9050919050565b7f536f6c64206f7574000000000000000000000000000000000000000000000000600082015250565b60006158916008836145fa565b915061589c8261585b565b602082019050919050565b600060208201905081810360008301526158c081615884565b9050919050565b7f5061757361626c653a206e6f7420706175736564000000000000000000000000600082015250565b60006158fd6014836145fa565b9150615908826158c7565b602082019050919050565b6000602082019050818103600083015261592c816158f0565b9050919050565b600081519050919050565b600082825260208201905092915050565b600061595a82615933565b615964818561593e565b935061597481856020860161460b565b61597d8161463e565b840191505092915050565b600060808201905061599d6000830187614735565b6159aa6020830186614735565b6159b760408301856145c5565b81810360608301526159c9818461594f565b905095945050505050565b6000815190506159e38161452c565b92915050565b6000602082840312156159ff576159fe6144f6565b5b6000615a0d848285016159d4565b91505092915050565b6000615a21826145bb565b91507fffffffffffffffffffffffffffffffffffffffffffffffffffffffffffffffff821415615a5457615a53615344565b5b600182019050919050565b7f4e487b7100000000000000000000000000000000000000000000000000000000600052601260045260246000fd5b6000615a99826145bb565b9150615aa4836145bb565b925082615ab457615ab3615a5f565b5b828204905092915050565b6000615aca826145bb565b9150615ad5836145bb565b925082821015615ae857615ae7615344565b5b828203905092915050565b6000615afe826145bb565b9150615b09836145bb565b925082615b1957615b18615a5f565b5b828206905092915050565b7f4e487b7100000000000000000000000000000000000000000000000000000000600052603260045260246000fd5b6000819050919050565b615b6e615b6982614c8c565b615b53565b82525050565b6000615b808285615b5d565b602082019150615b908284615b5d565b602082019150819050939250505056fea26469706673582212205cce8fbbbf81e7631342bac51f4380a4fdb5192bb16a6022ecc9ceea5dec716764736f6c634300080a0033",
  "linkReferences": {},
  "deployedLinkReferences": {}
}